:0300000002245D7A
:0C245D00787FE4F6D8FD7581BA0224A453
:0B2E5500245265763A2038302024001B
:10178200E47880F6122E6075E10175E24075A4904E
:1017920075B283E4F5A9122DDCE4FF122D9CE4F569
:1017A20026F5277D01AF27122D0C0527E5277002AC
:1017B2000526C39402E526940040E8E4F520C2130E
:1017C200C211C217C216C2157880F6C28308F67813
:1017D20085F618F6788AF6F526F527748C2527F80B
:1017E200E4F60527E527700205266414452670EB0A
:1017F200E4F526F52774A02527F8E4F60527E52762
:10180200700205266408452670EBE5EF20E10CE541
:10181200EF5408D394004003D38001C392037D08A0
:10182200E4FF122D5AE47889F67882F6AB69AA6A47
:10183200A96B7882E6FF75F010A4F58285F0831219
:101842000507FE788926F6EE600578820680DDEFD0
:10185200D394004030AB69AA6AA96B90000D1206BE
:101862007F1204EEFF74551205341204EE645560C3
:1018720002D21574AA1205341204EE64AA6002D2CE
:1018820015EF120534E5EF5402D3940040047F01B2
:101892008002E4FF1220D48F25E52520E035C21214
:1018A20074FFF508F509F50AF50B7E007F107D003F
:1018B2007B007A00790E1207BE752BFF752C167508
:1018C2002D89752E00752F107B007A00790E122A51
:1018D200F28002D212902E5CE493FF3395E0FEEF89
:1018E20024D0FFEE34FFFE7C007D64120568AA0658
:1018F200AB07902E5BE493FF3395E0FEEF24D0FF1D
:10190200EE34FFFE7C037DE8120568EF2BFBEE3A16
:10191200FA902E5DE493FF3395E0FEEF24D0FFEEC4
:1019220034FFFE7C007D0A120568EF2BFFEE3AFEC3
:10193200A3E493FD3395E0FCED24D0FDEC34FFCD20
:101942002FF50DED3EF50CE52530E1030219FFE41C
:10195200F526F527E527C4F8540FC868FFE526C425
:1019620054F048FEAB69AA6AA96B8F82F58312050F
:101972000770030219F6E92FF9EA3EFA9000041201
:10198200050720E264E4F524E524C37878965059EB
:10199200E527C4F8540FC868FFE526C454F048ABE5
:1019A20069AA6AA96B8F82F583120507FF7E00C0C0
:1019B20006C0077D00E527C4F8540FC868FFE52676
:1019C200C454F048FEE92FF9EA3EFA90000D1206DF
:1019D2007F7889E68524F0A429F9EA35F0FAD00760
:1019E200D0061207BE0524809F0527E52770020551
:1019F200260219567F01121BB1C2148007E4FF129E
:101A02001BB1D214E4F526F5277A007B967D03AF4D
:101A1200271226FF0527E52770020526C39402E553
:051A220026940040E4E1
:011A2700229C
:052E7400788AE6FF2250
:03002300021E3486
:101E3400C0E0C0F0C083C082C0D075D000C000C074
:101E440001C002C003C004C005C006C00730993AEF
:101E5400C2997885067985E77881667016F6788563
:011E6400F687
:0E1E650075450A0075460300D546FCD545F5C7
:041E7300C28380178F
:0E1E77007545140075460300D546FCD545F5AB
:101E85007885E624A0F8E6F599209803021F1D2021
:101E95009A07201304C298807BC29A7884E60624A8
:101EA5008CF8A699C2987884E6FFB40113788CE67D
:101EB500FE70057884F68060EE54072402788BF670
:101EC500EFB4020E788BE6B40908788DE624037921
:101ED5008BF77884E6FFB414047600803BEFC37873
:101EE5008B9640347884E624FFFDE434FFFC7B00C8
:101EF5007A00798C1224E97884E6248BF8E66F6001
:031F050002801146
:0E1F08007545140075460300D546FCD545F519
:101F160012087C78847600D007D006D005D004D08D
:101F260003D002D001D000D0D0D082D083D0F0D060
:021F3600E03297
:10277800788DE675F010A4AB69256BF9E56A35F03C
:10278800FA90000D12067F788AE6FF18E68FF0A40B
:102798002549F582E435F0F583120507FF7B007AB9
:0327A8000079476E
:1027AB008F568B578A588959EA494B60161204EE9B
:1027BB00FFE556FD7C00120003AB57AA58A959EF51
:0327CB00120534C0
:0E27CE00755A1400755B0300D55BFCD55AF5F7
:0E27DC008556997F01122CE33099FDC2992297
:062DF7007881EFF6D283A3
:0E2DFD007556140075570300D557FCD556F5D2
:062E0B0078A0E6F5992213
:102B9100C9EFC9E964017028EDC39B40347878E638
:102BA100FFEB2FFFE433FEEDC39FEE6480F87480EA
:102BB10098501ED213C3ED9B788AF678867601224F
:102BC100B90214ED6B700AD213788AF67886760210
:082BD10022C213E47886F6220B
:10299000C9EFC9BAFF15BBFF12ED6B7002EC6A708C
:1029A00049D213788AF67886E9F622E9640170251F
:1029B000C3ED9BEC9A401C7878E62BFFE43AFEC30B
:1029C000ED9FEC9E500DD213C3ED9B788AF678866E
:1029D0007601228015B90218ED6B7002EC6A700A5C
:1029E000D213788AF67886760222C213E47886F6C5
:0129F00022C4
:10087C00788CE6FF54F8F548EF1206AF08C5090866
:10088C00D00A08DF1008E81108F712090A19091E26
:10089C001A093D2009432809E3290AE7330B1637C7
:1008AC000B3C390B55410B5E490B67500BAB610A86
:1008BC00AD700BA39800000BD6788DE6FDE509FB17
:1008CC007F018021788DE6FC08E6FDAB09AA087F44
:1008DC00018025D21378867603020BD6788DE6FD3F
:1008EC00E50BFB7F02122B91020BD6788DE6FC08F0
:1008FC00E6FDAB0BAA0A7F02122990020BD6788D6B
:10090C00E6FDE509FB7F01122B91201303020BD6A8
:10091C008016788DE6FC08E6FDAB09AA087F01126B
:10092C002990201303020BD678A076787F01020B56
:10093C00D375EF10020BD6C2ACE4F547D283FB7A29
:10094C000079477F7F1227AB7B007A0079477F18AD
:10095C001227AB7B007A0079477F051227AB788290
:10096C00E61227A47B007A007947AF081227AB7BED
:10097C00007A007947AF091227AB7B007A007947E0
:10098C00AF0A1227AB7B007A007947AF0B1227AB6B
:10099C007B007A007947AF0C1227AB7B007A007989
:1009AC0047AF0D1227ABE4F549740E2549F8E61252
:1009BC0027A40549E549C3941040EE7B007A0079E1
:0609CC0000AF471227AB4B
:0E09D20075540A0075550300D555FCD554F533
:1009E000020A9A788DE6FFC37882964003020AA134
:1009F000EF75F010A4256BF9E56A35F0856951F5BE
:100A0000528953C2ACE4F547D283FB7A0079477F21
:100A10007F1227AB7B007A0079477F0D1227ABABA3
:100A200051AA52A9531204EE1227A4AB51AA52A9FB
:100A3000539000011227A1AB51AA52A95390000272
:100A40001227A1AB51AA52A9539000031227A1ABC0
:100A500051AA52A9539000041227A1E4F549AB51C1
:100A6000E5532405F9E43552FA7E00E92549F9EE0B
:100A70003AFA1204EE1227A40549E549C394084046
:0C0A8000DD7B007A007900AF471227AB45
:0E0A8C0075540A0075550300D555FCD554F578
:100A9A00C283D2AC020BD678A07678E408F67F023D
:100AAA00020BD3122E3D78AF12063278A0767C78EC
:100ABA00AFE678A1F678B0E678A2F678B1E678A340
:100ACA00F678B2E678A4F67C007D057B007A007998
:100ADA00A01224E978A5EFF67F06020BD3788DE6FB
:100AEA00FFB4010B08E6F50808E6F509020BA3EFC7
:100AFA00B40208788EE6F508020BA3788DE6B403F3
:100B0A000808E6F50A08E6F50B020BA3E4F549E541
:100B1A0049C3788D965016748E2549F8E6FF740EEF
:100B2A002549F8C6EFC60549E549B410E2E4F51DC2
:100B3A0080677A007B327D01788AE6FF1226FF7889
:100B4A008DE6FDE4FF122D5A020BD6788DE624FFBE
:100B5A0092028078788DE624FF9201806F788AE687
:100B6A006005754B02800B201605754B03800375D3
:100B7A004B0178A0767908A64B7C007D027B007A2F
:100B8A000079A01224E978A2EFF67F03122DF7E587
:100B9A004B64017037D2178002D211788076F180C7
:100BAA002B7A007B327D017F001226FF78A07679AE
:100BBA00788DE678A1F67C007D027B007A0079A028
:100BCA001224E978A2EFF67F03122DF7E54864A014
:100BDA006003020DD4788CE664A16003020CCE791E
:100BEA008DE7C37882964003020CC5AB69AA6AA94D
:100BFA006B788DE6FF75F010A4F58285F0831205F7
:100C0A0007F54BEF75F010A429F9EA35F0FA9000D0
:100C1A000412050730E230788DE6FF122E798F4BE9
:100C2A0078A0767F08A64BE54B2402FDE433FC7BD3
:100C3A00007A0079A01224E974A2254BF8EFF6E5B0
:100C4A004B2403FF020DD1788DE6FF122E79C2AC38
:100C5A00E4F547D283E54BD39406402B7B007A0018
:100C6A0079477F7F1227AB7B007A007947AF4B1217
:100C7A0027ABE4F549E549C3954B50071227780598
:100C8A004980F2054B8018E54B24781227A4E4F535
:100C9A0049E549C3954B5007122778054980F27BED
:0A0CAA00007A007900AF471227AB73
:0E0CB40075540A0075550300D555FCD554F54E
:100CC200020DC578A076787F01020DD1788CE6649A
:100CD200A26003020DD47882E6FF788DE6FEC39F00
:100CE2004003020DCB08E6FDC39F4003020DCBEE8D
:100CF2009D4003020DCB18E6F549E4F54FF550E5AA
:100D020049D3788E965026AF49122E79AB69AA6ADA
:100D1200A96B75F010E549A4F58285F083120507E9
:100D22002550F550E4354FF54F054980D2C2ACE469
:100D3200F547D283FB7A0079477F7F1227ABC3E561
:100D4200509480E54F940050028007E54F44801292
:100D520027A4AF501227A5788DE6F549E549D37847
:100D62008E965046E4F54AAB69AA6AA96B75F010F3
:100D7200E549A4F58285F083120507FFE54AC39F82
:100D82005024E54975F010A429F9EA35F0FA9000EB
:100D92000D12067F788AE6FF18E68FF0A4254A1224
:100DA200279A054A80C1054980B27B007A00790002
:050DB200AF471227AB62
:0E0DB70075540A0075550300D555FCD554F54A
:100DC500C283D2AC800978A076787F01122DF7E531
:100DD5004864587047FA7B327D01788AE6FF12260F
:100DE500FF755900755A00755BA17B007A00798DF6
:100DF500122C5F8F4BE54B247878A0F6E54B240148
:100E0500FDE433FC7B007A0079A01224E974A12566
:100E15004BF8EFF6E54B2402FF122DF7E548648009
:100E25006009E54864886003020FBB7886E6B40173
:100E35000F7A007B327D01788AE6FF1226FF801A41
:100E4500E4F549E549C3787896500F7A007B327D01
:100E550001AF491226FF054980E9788CE65407F56C
:100E65004BB4070A754A0108E6F54B088005E4F519
:100E75004A788DE6F54C154BE54CC37882964003D0
:100E8500020F99AB69AA6AA96B75F010E54CA4F538
:100E95008285F083120507FFE54BD39F40028F4BF8
:100EA5007886E6B40109788AE6F54EF54D8009E4C1
:100EB500F54D7878E614F54E788AA64D788AE6D30E
:100EC500954E4003020F8DE4F549E549C3954B4026
:100ED50003020F82E54C75F010A4AB69256BF9E5AB
:100EE5006A35F0FA90000412050730E203020F7D1F
:100EF50090000112050764387031E54BD394044026
:100F05000BE54A2549248EF8E6FD804E7884E6C334
:100F15009549FF748A2FF8E6FDE54C75F010A4ABF2
:100F250069256BF9E56A35F0FA802FAB69AA6AA9DC
:100F35006B75F010E54CA4F58285F083120507FF6B
:100F4500C37884E69F2549254A248BF8E6FDE54CC0
:100F550075F010A429F9EA35F0FA90000D12067F14
:100F6500788AE6FF18E68FF0A4FFE5492FF582E4BD
:100F750035F0F583ED1205460549020ECFAF4C124B
:100F85002E11788A06020EC1788AA64DE548648836
:100F95007024800FE54CB4FF1D788EE6F520E548FA
:100FA500B4881378A076787884E6248BF8E678A15F
:060FB500F67F02122DF789
:010FBB002213
:103000007880E664F16003023613E4F534F5357830
:0430100081E66020D5
:0E301400753A0A00753B0300D53BFCD53AF532
:103022000535E5357002053464107004E534642713
:1030320070DBC2AFE4F5D9F530F52F20982FE4F517
:1030420034F535209823C3E5359488E5349413503C
:013052001865
:0E305300753A0A00753B0300D53BFCD53AF5F3
:103061000535E53570DE053480DAB28680CE859986
:103071002FC298E52F641A6003023146F534F53505
:0E308100209823C3E5359488E5349413501845
:0E308F00753A0A00753B0300D53BFCD53AF5B7
:10309D000535E53570DE053480DA30989385993045
:1030AD00C298E4F534F535209823C3E5359488E5C9
:0530BD003494135018CB
:0E30C200753A0A00753B0300D53BFCD53AF584
:1030D0000535E53570DE053480DA20980302303D91
:1030E000859930C298E4F534F535209823C3E53549
:0830F0009488E5349413501894
:0E30F800753A0A00753B0300D53BFCD53AF54E
:103106000535E53570DE053480DA20980302303D5A
:09311600859930C298D283C29958
:0E311F00753A1400753B0300D53BFCD53AF51C
:06312D007599783099FD50
:0E313300753A0A00753B0300D53BFCD53AF512
:10314100C283023605E52F645060030231DBF5349A
:10315100F535209823C3E5359488E5349413501848
:0E316100753A0A00753B0300D53BFCD53AF5E4
:10316F000535E53570DE053480DA20980302303DF1
:09317F00859930C298D283C299EF
:0E318800753A1400753B0300D53BFCD53AF5B3
:083196007599793099FDC29989
:0E319E00753A1400753B0300D53BFCD53AF59D
:0831AC007599013099FDC299EB
:0E31B400753A1400753B0300D53BFCD53AF587
:0631C200E4F5993099FDCF
:0E31C800753A0A00753B0300D53BFCD53AF57D
:0F31D600C283023605E52F64017041D283C2998E
:0E31E500753A1400753B0300D53BFCD53AF556
:0831F3007599783099FDC2992D
:0E31FB00753A1400753B0300D53BFCD53AF540
:06320900E4F5993099FD87
:0E320F00753A0A00753B0300D53BFCD53AF535
:10321D00C283023605E52F640260030232E2F53403
:10322D00F535209823C3E5359488E534941350186B
:0E323D00753A0A00753B0300D53BFCD53AF507
:10324B000535E53570DE053480DA20980302303D14
:10325B00859930C298E4F531E53013B39286E530A9
:10326B0025E0FEC3E49400EE94305027E5307F0058
:10327B0025E0FEC3943A501B758F038E368F37753E
:10328B00B7A57880E6F5B7853782853683E4F0F508
:0A329B008F80037531FFD283C299C2
:0E32A500753A1400753B0300D53BFCD53AF595
:0832B3007599783099FDC2996C
:0E32BB00753A1400753B0300D53BFCD53AF57F
:0632C9008531993099FDEA
:0E32CF00753A0A00753B0300D53BFCD53AF575
:1032DD00C283023605E52F6403600302342CF534F6
:1032ED00F535209823C3E5359488E53494135018AB
:0E32FD00753A0A00753B0300D53BFCD53AF547
:10330B000535E53570DE053480DA20980302303D53
:10331B00859930C298E4F534F535209823C3E5350B
:08332B009488E5349413501856
:0E333300753A0A00753B0300D53BFCD53AF510
:103341000535E53570DE053480DA20980302303D1D
:10335100859932C298E530139286E53025E0FEC3A7
:10336100E49400EE9430400302303DE5307D0025C9
:10337100E0FCC3943A400302303D758F01E532759C
:10338100F020A42DFFE5F03CF5368F37E4F533E569
:1033910033C394205051E4F534F535209823C3E527
:0933A100359488E53494135018AA
:0E33AA00753A0A00753B0300D53BFCD53AF599
:1033B8000535E53570DE053480DA20980302303DA6
:1033C80075B7A57880E6F5B70537E537AE367002EC
:1033D800053614F5828E83E599F0C298053380A8E6
:0733E800E4F58FD283C299C6
:0E33EF00753A1400753B0300D53BFCD53AF54A
:0833FD007599783099FDC29921
:0E340500753A1400753B0300D53BFCD53AF533
:06341300E4F5993099FD7B
:0E341900753A0A00753B0300D53BFCD53AF529
:10342700C283023605E52F640460030234E0F534F5
:10343700F535209823C3E5359488E534941350185F
:0E344700753A0A00753B0300D53BFCD53AF5FB
:103455000535E53570DE053480DA20980302303D08
:10346500859930C298E53025E0F538753900E4F5E1
:1034750031F534F5350539E539AE387002053814BE
:10348500F5828E83E4932531F5310535E5357002F6
:0E34950005347004E534640270DBD283C29902
:0E34A300753A1400753B0300D53BFCD53AF595
:0834B1007599783099FDC2996C
:0E34B900753A1400753B0300D53BFCD53AF57F
:0634C7008531993099FDEA
:0E34CD00753A0A00753B0300D53BFCD53AF575
:1034DB00C283023605E52F640560030235FDF53422
:1034EB00F535209823C3E5359488E53494135018AB
:0E34FB00753A0A00753B0300D53BFCD53AF547
:103509000535E53570DE053480DA20980302303D53
:10351900859930C298E4F534F535209823C3E5350B
:083529009488E5349413501856
:0E353100753A0A00753B0300D53BFCD53AF510
:10353F000535E53570DE053480DA20980302303D1D
:09354F00859932C298D283C29919
:0E355800753A1400753B0300D53BFCD53AF5DF
:0835660075997F3099FDC299AF
:0E356E00753A1400753B0300D53BFCD53AF5C9
:10357C007599203099FDE53025E0FCE53275F02099
:10358C00A42400FFE5F03CF5388F39E4F531F53330
:02359C00C299D2
:0E359E00753A1400753B0300D53BFCD53AF599
:1035AC00853982853883E493F5993099FD0539E5A1
:1035BC0039AE387002053814F5828E83E4932531C8
:0B35CC00F5310533E533B420C7C29988
:0E35D700753A1400753B0300D53BFCD53AF560
:0635E5008531993099FDCB
:0E35EB00753A0A00753B0300D53BFCD53AF556
:1035F900C2838008E52FB4060375EF10E52F640731
:0A360900600302303D7880F6D2AF76
:013613002294
:102858007F00122CE320120B7A007B327D017F006F
:102868001226FF30150B7A007B1E7D017F00122691
:10287800FF3011173016147A007B327D01788AE612
:10288800FF1226FFC21112231ED21220140C30167A
:1028980009788076F112231ED214301708301605F5
:1028A800C217123000201612122E30E47B2C7A0147
:0B28B800F9F8C31206215002D21622CC
:0B2E4A00121782122858122E2280F866
:101D2A00005EBCE2613FDD83C29C7E20A3FD1F41B1
:101D3A009DC3217FFCA2401E5F01E3BD3E6082DCA1
:101D4A00237D9FC1421CFEA0E1BF5D0380DE3C6291
:101D5A00BEE0025CDF81633D7C22C09E1D43A1FF81
:101D6A004618FAA427799BC584DA3866E5BB590771
:101D7A00DB856739BAE406581947A5FB7826C49A61
:101D8A00653BD987045AB8E6A7F91B45C6987A2451
:101D9A00F8A6441A99C7257B3A6486D85B05E7B941
:101DAA008CD2306EEDB3510F4E10F2AC2F7193CD31
:101DBA00114FADF3702ECC92D38D6F31B2EC0E5021
:101DCA00AFF1134DCE90722C6D33D18F0C52B0EE11
:101DDA00326C8ED0530DEFB1F0AE4C1291CF2D7301
:101DEA00CA947628ABF517490856B4EA6937D58BF1
:101DFA005709EBB536688AD495CB2977F4AA4816E1
:101E0A00E9B7550B88D6346A2B7597C94A14F6A8D0
:101E1A00742AC896154BA9F7B6E80A54D7896B35C0
:0A1E2A000000000000002B96B9DD57
:032D7B00015D0AED
:1024E900151E151EA81EECF608EDF6151E151E156F
:1024F9001EA81EC6EBC608C6EAC608C6E9C6E51E7A
:0425090024FCF51E9B
:10250D00F80808E4F6A81EF608F6E51E2407F9A853
:10251D001EE6FE08E6FFC3099719E76480F8EE642E
:10252D0080985037E51E2404F8CBE6CB08E6FA0870
:10253D00E6F98F828E83120507A81E080866FFE54F
:10254D001E2403F8EFF6E6901D2A93A81E0808F640
:10255D00A81E0806E61870B20680AFA81E0808E689
:01256D00FF6E
:07256E00E51E2409F51E2201
:07000300ED6F901D2A93FF31
:01000A0022D3
:102D5A00EF701B7598D0E589540F4420F589438E8E
:102D6A0008ED901E2993F58DD28ED2ACC2BCD2AF9B
:012D7A002236
:102C1D00E4F563F562F561F560F567F566F565F563
:102C2D0064755C64FFEF25E025E024B3F8E4F6EF6E
:102C3D0025E025E024B4F8E4F6EF25E025E024B501
:102C4D00F8E4F6EF25E025E024B6F8E4F60FBF0230
:012C5D00D4A2
:012C5E002253
:102DDC00D2AFD2A9C2BBE589540F4401F589E4F501
:0B2DEC008E758CAFF58AD28C022C1D76
:0223C100151EE7
:1023C300A81EE4F6A81EE6FFC39402400302245AA3
:1023D300EF25E025E024B6F8E6FFD394004052A8A9
:1023E3001EE625E025E024B4F8E67045EF30E0155D
:1023F300A81EE6FF25E025E024B6F8E6D3940140C5
:10240300047D0180067D00A81EE6FF122B44A81E52
:10241300E6FF25E025E024B6F816E66014EF25E094
:1024230025E024B5F8E6FEEF25E025E024B4F8EE38
:10243300F6A81EE625E025E024B4F8E6600116A818
:102443001EE6FF25E025E024B6F8E67004FD122B16
:0724530044A81E060223C786
:03245A00051E223A
:03000B0002268149
:10268100C0E0C0F0C083C082C0D0E8C0E0E9C0E0D3
:10269100EAC0E0EBC0E0ECC0E0EDC0E0EEC0E0EF8E
:1026A100C0E0758CAFE5632401F563E43562F56242
:1026B100E43561F561E43560F560D55C18E56724C2
:1026C10001F567E43566F566E43565F565E435647D
:1026D100F564755C641223C1122DBCD0E0FFD0E01B
:1026E100FED0E0FDD0E0FCD0E0FBD0E0FAD0E0F994
:0E26F100D0E0F8D0D0D082D083D0F0D0E0324C
:102D0C00151EA81EEDF6151EA81EEFF6A81EE6FF52
:102D1C00C39402500D08E6FEEF25E025E024B3F83D
:072D2C00EEF6051E051E2254
:1026FF00151E151EA81EEAF608EBF6151EA81EEDF0
:10270F00F6151EA81EEFF6A81EE6FFC39402505240
:10271F00EF25E025E024B6F8E67047A81EE6FB2576
:10272F00E025E024B4F8E67039A81E08E625E00499
:10273F00FFA81EE6FA25E025E024B6F8EFF6A81E5E
:10274F000808E6FE08E6FF7C007D0A12057AEA25F6
:10275F00E025E024B5F8EFF6EB25E025E024B4F80A
:09276F00E4F6E51E2404F51E2227
:102B4400151EA81EEDF6151EA81EEFF6A81EE6FF1C
:102B5400C39402501CEF25E025E024B3F8E660118D
:102B6400A81E08E670047F0180027F00A81E08EFFB
:102B7400F6A81EE6700608E624FF9286A81EE6B4B0
:0D2B8400010608E624FF9282051E051E22B0
:0C2E3000C2AFAF63AE62AD61AC60D2AF68
:012E3C002273
:0C2E3D00C2AFAF67AE66AD65AC64D2AF4B
:012E49002266
:102CE300151EA81EEFF6A81EE67004F55EF55F300C
:102CF3001814E55D75F064A4FFC3E55F9FE55E9579
:092D0300F05003E4F5FE051E2268
:102D9C00D218E4F55EF55FEF6004F55D8003755DB8
:102DAC000AE4F5D975FDFF75D940F5FE75EF0622DD
:0A2E6000C218E4F55EF55FF5D92213
:102DBC00055FE55F7002055E301814E55D75F06423
:102DCC00A4FFC3E55F9FE55E95F05003E4F5FE229A
:042CB8008E2E8F2F9E
:102CBC00E4F530F531C3E531952FE530952E5016FE
:102CCC007FE87E03122A497F01122CE30531E5319E
:062CDC0070E3053080DF0B
:012CE20022CF
:042A49008E328F3307
:102A4D00D3E53394FAE5329400500FEFD394004060
:102A5D0041007E0300DEFD1F80F185323485333564
:102A6D00D3E53594FAE534940040157FFA7E0012D3
:102A7D002A4974062535F53574FF3534F53480E073
:102A8D00D3E5339400E53294004007AF35AE3412F0
:022A9D002A49C4
:012A9F002214
:1028C30075330075340075352D7B007A00792B7DC7
:0128D3000202
:0828D4008B2F8A3089318D320F
:1028DC007F01122CE3AB33AA34A9351205B02400C6
:1028EC00FFE5F0343AFE852F36853037853138E4F4
:1028FC00FDEDC39532501BEF2DF582E43EF583E4DC
:10290C0093AB36AA37A9388D827583001205460D14
:0F291C0080DFAB33AA34A935E48532F00205DB46
:10226500753112753234753900753A00753B337B1B
:07227500007A0079317D02BF
:08227C008B358A3689378D3855
:102284007880E664F1600302231D122E60C2AF75EC
:102294008F01AB39AA3AA93B1205B02400FFE5F03F
:1022A400343A78A8F608EFF6AA36A93778ACA635FA
:1022B40008C6EAC608C6E9C6E478AAF678AAE6C358
:1022C4009538503C78ACCBE6CB080806E618CAE64D
:1022D400CA70010614F91204EE78ABF675B7A57846
:1022E40080E6F5B778ABE6FF78A80806E618CCE6F2
:1022F400CC70010614F5828C83EFF078AA0680BCBA
:10230400E4F58F53B6F0AB39AA3AA93B8538F012FD
:0923140005DBD2AFE4FF122D9CA1
:01231D00229D
:102AA0007880E664F1704AC2AF122E60758F0378A9
:102AB000A9763A087600E478A8F675B7A57880E696
:102AC000F5B778A9E6FE08E6F5828E83E4F07F018B
:102AD000122CE378AAE426F618740236F61806E6F5
:102AE000C3940140D5E4F58F53B6F0D2AFFF122D59
:012AF0009C49
:012AF10022C2
:10231E00122AA0E4F533F534F539753A00753B33DE
:10232E00FB7A0079087D1612227C122265E4F530C4
:10233E00E530C37878965073E4F52FAB69AA6AA995
:10234E006B75F010E52FA4F58285F08312050760FA
:10235E0056E52F75F010A429F9EA35F0FA90000D24
:10236E0012067F7889E68530F0A429F9EA35F0FA6D
:10237E00EBC0E0EAC0E0E9C0E0AB69AA6AA96B7500
:10238E00F010E52FA4F58285F083120507FD75394F
:10239E0000753A00753B33D0E0F9D0E0FAD0E0FB9F
:1023AE0012227C052F809405308085122265E478F8
:0223BE0080F6A7
:0123C00022FA
:0320D400CCEFCC82
:1020D700E4F52DF52EF52AF53375340075352DFB0E
:1020E7007A0079087D161228D41228C3E52C6434A7
:1020F7007004E52B64127003432A01EC700302217C
:1021070097E4F529E529C37878965073E4F528AB69
:1021170069AA6AA96B75F010E528A4F58285F08392
:102127001205076056E52875F010A429F9EA35F07D
:10213700FA90000D12067F7889E68529F0A429F91F
:10214700EA35F0FAEBC0E0EAC0E0E9C0E0AB69AA23
:102157006AA96B75F010E528A4F58285F08312054E
:1021670007FD75330075340075352DD0E0F9D0E0E3
:10217700FAD0E0FB1228D40528809405298085121F
:1021870028C3E52C64347004E52B641270058000C5
:05219700432A02AF2AFB
:01219C002220
:10142B00353030303030302E3000313030303030DD
:10143B002E30003230303030302E30003130303002
:10144B003030302E3000352E300035302E3000202D
:10145B00004F5554507574204F4646002A434C5349
:10146B00004F55545075743A4C4F4144204D4158E0
:10147B00696D756D00545249473A534F5552204987
:10148B004D4D00545249473A534F555220455854ED
:10149B0000545249476765723A534C4F5065205080
:1014AB004F5369746976650053574565703A5354C9
:1014BB00415465204F46460042555253743A53549B
:1014CB00415465204F464600464D3A5354415465AE
:1014DB00204F4646004652455175656E63793A5327
:1014EB0054415274202573004652455175656E6305
:1014FB00793A53544F502025730053574565703A32
:10150B0053504143696E67204C494E6561720053DD
:10151B00574565703A54494D4520256500564F4C4B
:10152B00544147452025650053574565703A535440
:10153B00415465204F4E004F5554507574204F4EFB
:10154B000042555253743A4D4F444520545249472B
:10155B006765726564004150504C793A53494E753A
:10156B00736F69642025732C2025650042555253F7
:10157B00743A4E4359436C657320256400425552AF
:10158B0053743A5354415465204F4E0044415441D7
:10159B0020564F4C4154494C452000202C25342ECD
:1015AB0032662000444154413A434F50592054571E
:1015BB004953544C41444445520046554E4374697B
:1015CB006F6E3A555345522054574953544C41442E
:1015DB004445520046554E4374696F6E2055534532
:1015EB0052004150504C793A555345522025732C9B
:1015FB0020256500464D3A534F555220494E540015
:10160B00464D3A534F55522045585400465245517A
:10161B0020257300464D3A494E543A4652455120C7
:10162B00257300464D3A444556696174696F6E20C7
:10163B00257300464D3A5354415465204F4E00419B
:10164B004D3A534F555220494E5400414D3A534F4A
:10165B0055522045585400414D3A494E543A465242
:10166B00455120257300414D3A444550546820257F
:10167B007300414D3A5354415465204F4E0052462E
:10168B003331305F7878000134000000436F6E74A3
:10169B00726F6C0001000001340000005374617420
:1016AB007573000001000101340000005365747470
:1016BB00696E670001000201340000004750494287
:1016CB00204164720100030418FD00017266416D34
:1016DB0070000000010004040300000173776565CE
:1016EB0070447572010008025C0000006E756D435A
:1016FB007963000001000C025C0000006E756D53F5
:10170B007465707301000E20380000006643656E2F
:10171B00746572000100102038000000665374617C
:10172B0072740000010030203800000066456E64C2
:10173B000000000001005020380000006642757266
:10174B00737400000100702038000000664D6F6458
:10175B000000000001009020380000006661446525
:10176B00707468000100B000000000000000000071
:07177B000000000000000067
:102D7E000B6D245265763A203533202400017801FC
:0D2D8E000369FF1692016802016C00C199F3
:021BB1008F287B
:101BB300E4FFFE74732FF9C3E7648094B050067496
:101BC300732FF876300FBF00010EEF64044E70E3FD
:101BD3007874E6FF3395E0FEEF24D0FFEE34FFFE8A
:101BE3007C007D64120568CAEECACBEFCB7873E63E
:101BF300FF3395E0FEEF24D0FFEE34FFFE7C037D40
:101C0300E8120568EF2BFBEE3AFA7875E6FF339599
:101C1300E0FEEF24D0FFEE34FFFE7C007D0A1205C8
:101C230068EF2BFFEE3AFE7876E6FD3395E0FCEDA8
:101C330024D0FDEC34FFCD2FF50DED3EF50C75A052
:101C4300FFD291D292D293D294D295D296D297D2F6
:101C530090C287C2B4C2957F017E00122CB8D29580
:101C6300C2977F1412292BD297E5287003021D18FF
:101C7300900003740AF0E4900001F0A37402F09062
:101C8300000412063E43FA000090000812063E418B
:101C930000000090000CE4F0A37404F0A3E4F0A3AC
:101CA3007404F0752CFF752D14752E2B7B017A00AF
:101CB3007910121018752CFF752D14752E357B01B4
:101CC3007A007930121018752CFF752D14752E3E7D
:101CD3007B017A007950121018752CFF752D14753D
:101CE3002E477B017A007970121018752CFF752D21
:101CF30014752E517B017A007990121018752CFF00
:101D0300752D14752E557B017A0079B01210187554
:101D1300080075090178D07C007D017BFF7A147976
:071D23005A1207A10225FF7F
:102E1100151EA81EEFF6A81EE67003756801051EB3
:012E2100228E
:052E79008F567F0022CE
:102C5F008B568A5789581204EEAB59AA5AA95B12A0
:102C6F000534AB56AA57A958900001120507AB5966
:0D2C7F00AA5AA95B9000011205467F0222AF
:02292B008F2EED
:10292D00122858E4FFFE20930B0FBF00010EBE03CB
:10293D00F5BFE8F22093037F0022E52EF4F5A07F8A
:10294D00017E00122A49C292E4FEFF20940B0FBFB4
:10295D0000010EBE03F5BFE8F2209408D29275A0D7
:10296D00FF7F0022D29275A0FFE4FEFF20930B0F94
:10297D00BF00010EBE03F5BFE8F22093037F0022D6
:02298D007F01C8
:01298F002225
:102C8C008F26900002E030E1077F647E00122CB8A2
:102C9C00C2977F3F12292B7F5F12292BE5264420F8
:0C2CAC00FF12292B7F5512292BD29722F2
:062BD9007B017A0079D0B7
:062BDF008B268A278928DD
:102BE500E4F529AB26AA27A92812000EC3E5299FDB
:102BF500EE6480F8748098501CAB26AA27A9288516
:102C05002982758300120507FF12292BEF7002FF39
:072C150022052980CEAF2942
:012C1C002295
:0B27EA00900003E0FF7B017A0079D033
:0827F5008F298B2A8A2B892C05
:1027FD00900002E030E1077F647E00122CB8C29792
:10280D007F3F12292B7F5F12292BE5294420FF12D0
:10281D00292B7F5512292BD297E4F52DAB2AAA2B04
:10282D00A92C852D82758300120507FFD364809432
:10283D0080400C12292BEF7002FF22052D80DDC286
:0A284D00917F0A12292BD291AF2DC2
:01285700225E
:0A2E6A00C2917F0A12292BD2912297
:1025FF00900003E0FF7BFF7A14795C1227F59000BF
:10260F0003E0FF7BFF7A1479671227F5900003E050
:10261F00FF7BFF7A14796C1227F5900002E030E00F
:10262F000BA3E0FF7BFF7A147980800B900003E00F
:10263F00FF7BFF7A14798E1227F5900003E0FF7B62
:10264F00FF7A14799C1227F5900003E0FF7BFF7A45
:10265F001479B31227F5900003E0FF7BFF7A14790A
:10266F00C31227F5900003E0FF7BFF7A1479D302A2
:02267F0027F53D
:10219D001225FF752CFF752D14752EE0752F017509
:1021AD0030007531307B017A0079D012101812276A
:1021BD00EA752CFF752D14752EF3752F01753000F2
:1021CD007531507B017A0079D01210181227EA90E0
:1021DD000003E0FF7BFF7A1579051227F5752CFFBB
:1021ED00752D15752E1A900008E0FCA3E0FDA3E0F7
:1021FD00FEA3E0F5328E318D308C2F7B017A007984
:10220D00D01210181227EA752CFF752D15752E2872
:10221D00E4FBFA797A7844900004E0FCA3E0FDA396
:10222D00E0FEA3E0FF1201218F328E318D308C2F15
:10223D007B017A0079D01210181227EA900003E082
:10224D00FF7BFF7A1579331227F5900003E0FF7BB2
:08225D00FF7A1579420227F512
:102575001225FF900003E0FF7BFF7A15794C1227A7
:10258500F5752CFF752D15752E61752F01753000AC
:10259500753170E4FBFA797A7844900004E0FCA385
:1025A500E0FDA3E0FEA3E0FF1201218F358E348DFF
:1025B500338C327B017A0079D01210181227EA7514
:1025C5002CFF752D15752E7790000CE0F52FA3E0E7
:1025D500F5307B017A0079D01210181227EA9000A5
:1025E50003E0FF7BFF7A1579881227F5900003E059
:0A25F500FF7BFF7A1579420227F5FB
:101A2800E4F524F5251225FF900003E0FF122C8C25
:101A38007E017F2C7D007B017A0079D01207BE7869
:101A4800D07C007D017BFF7A1579971207A1122BB4
:101A5800D9E4F524F525D390000FE09525E5246415
:101A680080F890000EE06480985003021B01752CEA
:101A7800FF752D15752EA6E52525E0FDE52433FC1B
:101A88001201C3ECC0E0EDC0E0EEC0E0EFC0E090B2
:101A9800000FE024FFFD90000EE034FFFC1201C3AC
:101AA800C8ECC8C9EDC9CAEECACBEFCBD0E0FFD0AD
:101AB800E0FED0E0FDD0E0FC120121E4FBFA7980E1
:101AC80078BF12002D8F328E318D308C2F7B017AAA
:101AD8000079D0121018122BD97A007B197D017F5A
:101AE800001226FF7F197E00122CB80525E5256017
:101AF80003021A5E0524021A5E122E6A12285890F2
:101B08000003E0FF7BFF7A1579AF1227F57FF47E9B
:101B180001122CB8900003E0FF7BFF7A1579C512FB
:101B280027F5900003E0FF7BFF7A1579DF1227F590
:101B3800752CFF752D15752E7790000CE0F52FA3E9
:101B4800E0F5307B017A0079D01210181227EA7577
:101B58002CFF752D15752EED752F0175300075311B
:101B680090E4FBFA797A7844900004E0FCA3E0FD65
:101B7800A3E0FEA3E0FF1201218F358E348D338C54
:101B8800327B017A0079D01210181227EA900003EC
:101B9800E0FF7BFF7A1579881227F5900003E0FFB4
:091BA8007BFF7A1579420227F552
:101F38001225FF900002E030E00BA3E0FF7BFF7A60
:101F48001579FF800B900003E0FF7BFF7A16790B71
:101F58001227F5752CFF752D16752E17752F01751F
:101F680030007531107B017A0079D01210181227D1
:101F7800EA752CFF752D16752E1F752F017530000B
:101F88007531907B017A0079D01210181227EA7502
:101F98002CFF752D16752E2E752F01753000753195
:101FA800B07B017A0079D01210181227EA752CFF3D
:101FB800752D15752E28E4FBFA797A78449000047B
:101FC800E0FCA3E0FDA3E0FEA3E0FF1201218F32B5
:101FD8008E318D308C2F7B017A0079D01210181237
:101FE80027EA900003E0FF7BFF7A16793E1227F577
:0E1FF800900003E0FF7BFF7A1579420227F587
:102006001225FF900002E030E00BA3E0FF7BFF7A91
:1020160016794A800B900003E0FF7BFF7A1679560B
:102026001227F5752CFF752D16752E17752F017550
:1020360030007531107B017A0079D0121018122702
:10204600EA752CFF752D16752E62752F01753000F9
:102056007531907B017A0079D01210181227EA7533
:102066002CFF752D16752E71752F01753000753183
:10207600B07B017A0079D01210181227EA752CFF6E
:10208600752D15752E28E4FBFA797A7844900004AC
:10209600E0FCA3E0FDA3E0FEA3E0FF1201218F32E6
:1020A6008E318D308C2F7B017A0079D01210181268
:1020B60027EA900003E0FF7BFF7A16797D1227F569
:0E20C600900003E0FF7BFF7A1579420227F5B8
:1029F100E56864017051FA7B327D01FF1226FF9078
:102A01000000E030E10512219D802E900000E030B1
:102A1100E2051225758022900000E030E305121ACC
:102A2100288016900000E030E405121F38800A90DB
:102A31000000E030E503122006756802900000E016
:082A4100A3F0E4900000F02274
:0E2E22007A007BC87D017F011226FF0229F194
:10002600020231E86480F8E933E83360110460F0D5
:10003600ED33EC337009E8FCE9FDEAFEEBFF220440
:1000460060DED3EB9FEA9EE99DE8C2E78CF0C2F73B
:1000560095F0400CE8CCF8E9CDF9EACEFAEBCFFB07
:100066001201FC85D0F05804700320D5B3E8047063
:10007600075002B2D502023B92D5EC0460F7E4CCFD
:10008600C0E0C398F8603B94186008400DD0E0FBD0
:10009600020213E4FBFAC9FC8028E830E406E4C94E
:1000A600FBE4CAFCE830E305E4C9CACBFCE8540724
:1000B6006010F8C3E913F9EA13FAEB13FBEC13FC2F
:1000C600D8F130F52FC3E49CFCEF9BFFEE9AFEEDD2
:1000D60099FDD0E0FBEF4E4D4C701222DB0302027D
:1000E60038EC2CFCEF33FFEE33FEED33FDED30E75D
:1000F600EB020213EF2BFFEE3AFEED39FDD0E0FBEB
:1001060050130BBB000302023BED13FDEE13FEEF93
:0801160013FFEC13FC020213BD
:10011E0002023BEC5D046005E859047003020231F3
:10012E001201FC580460F6EC4860F2EC7004FDFE1F
:10013E00FF22C860DB2481C85009C39860025006B4
:10014E000202389850CAF582E9294B4A7005AB82F3
:10015E0002022775F0007C1A7880C3EF9BEE9AEDB1
:10016E0099400DC3EF9BFFEE9AFEED99FDE842F02C
:10017E00DC23ACF0D0E0FFD0E0FED0E0FDAB82207F
:10018E00E7101BEB60BAEC2CFCEF33FFEE33FEED09
:10019E0033FD020213E803F830E705C0F075F000F6
:1001AE00EF2FFFEE33FEED33FD40B830E7C280AAED
:1001BE0075F020800E75F010800575F0087D007EBC
:1001CE00007F003392D530D503120613EC33401066
:1001DE00EF33FFEE33FEED33FDEC33FCD5F0ED22C5
:0E01EE00E5F0247EA2D513CC92E7CDCEFF2201
:100FBC00E540242CF8E60540227829300F02782CE5
:100FCC00E475F00112066F0204EE2008EB7F2ED2BE
:100FDC00088018EF540F2490D43440D4FF300C0BFD
:100FEC00EF24BFB41A0050032461FFE541600215E1
:100FFC00410544E54470020543300F0D7829E47532
:10100C00F00112066FEF020534022D337403D20F78
:10101C008003E4C20FF5408B298A2A892BE4F54121
:10102C00F543F544E54160077F20120FF780F57515
:10103C0042FFC209C208C20AC20BC20DC20EC210C4
:10104C00120FC5FF700D300F057F00121008AF4452
:10105C00AE4322B4255FC2D5C20C120FC5FF24D0FB
:10106C00B40A00501A75F00A784130D50508B6FF5D
:10107C000106C6A426F620D5047002D20B80D92412
:10108C00CFB41A00EF5004C2E5D20C0212F5D2090B
:10109C0080C6D20880C0D20A80BCD2D580BAD20D0C
:1010AC0080B47F20120FF7200A077401B54100406D
:1010BC00F1120FBCFF120FF7021030D210D20E80BB
:1010CC0095120FBCFB120FBCFA120FBCF94A4B70F5
:1010DC000679EC7A137BFF200A2EE541602A7E000C
:1010EC008E8275830012050760060EEE654270F065
:1010FC00C2D5EBC0E0EAC0E0E9C0E0EE121355D077
:10110C00E0F9D0E0FAD0E0FB1204EEFF60AAEBC0ED
:10111C00E0EAC0E0E9C0E0120FF7D0E02401F9D01A
:10112C00E03400FAD0E0FBE5420460DCD542D98023
:10113C0087D20A80A212133860F7E54270010412BC
:10114C000246A942600DE542600914F5421213DF14
:10115C00EF60F3EA30E702F404C3995077EAF42520
:10116C00420430E701E404F542800D12133860C1EB
:10117C00EA05422542120246EA783FF630E701E4DE
:10118C00254204D54204200D0114121355E4C0E08D
:10119C001213DF783FE6601320E70714F6120FDF17
:1011AC00802204F6D0E014C0E07F00120FDFE5428D
:1011BC006007120FD61542800B300D03120FD6D0DC
:1011CC00E0021030D0E00480C512133860A0E54274
:1011DC0004120246783FEAF6E542200D0260010453
:0511EC0024041213555C
:1011F10074FF04C0E01213DF120FDFE542200D027D
:101201006003120FD6D0E0B542E87F45120FE978AE
:101211003FE67F2B30E7047F2DF404C0E0120FF787
:10122100D0E075F00A84C0F0120FE0D0E0120FE0B8
:10123100021030791080027908C20EC2108008D2E3
:10124100D5790A8004790AC2D5E542047002F542D3
:10125100E4FAFDFEFF120FBCFC7B08200913120FFC
:10126100BCFD7B1030080A120FBCFE120FBCFF7BC5
:1012710020EC3382D592D55013C3E43008069FFF8A
:10128100E49EFEE42009039DFDE49CFCE4CBF8C24E
:1012910009EC700CCFCECDCCE824F8F870F38017B0
:1012A100C3EF33FFEE33FEED33FDEC33FCEB33FBE9
:1012B100994002FB0FD8E9EB300905F8D0E0C448AA
:1012C100B209C0E00AEC4D4E4F78207B0070C2EAB3
:1012D100B5420040BCC0E0121357D0F0D0E0200965
:1012E10004C4C0E0C4B209C0F0120FE0D0F0D5F0E0
:1012F100EB0210301206AF10CD53123458109E4C31
:10130100109A4212384F12404412404910B343120E
:10131100465511774611D545114147140C5010A27D
:101321002D10A62E10C92B10AA2310C72013F52AA1
:10133100106248000010C1E542B4FF037542061275
:101341000FBCFC120FBCFD120FBCFE120FBCFF78CC
:1013510038020275790AA2D5200B14300D09B91093
:10136100020404B9080104A2D5200E025001042090
:101371000A68920AB541005034C0E07F20300B1951
:101381007F30A20A720E720D500F1213AEC20AC242
:101391000EC20DC2107F30800F300D03E9C0E01284
:1013A1000FF7300D03D0E0F9D0E0B541CC300D1787
:1013B1007F30B9100C120FF77F58300C077F7880FF
:1013C10003B90803120FF7300A057F2D020FF77FCB
:1013D100202010F87F2B200EF322920A80CF7F006D
:1013E100B4070050052438F8E6FF22286E756C6CAE
:1013F1002900D209120FBC3009F8C209784130D551
:101401000108F60210622D50434958120FBC240303
:10141100B405004001E490140793120FE8743A12E6
:0A1421000FE8D20B754104021234EB
:1001FC00E9D2E7C933E833F892D5EDD2E7CD33EC49
:07020C0033FC5002B2D522C1
:10021300EC30E7100FBF000C0EBE00080DBD00044C
:100223000BEB6014A2D5EB13FCED92E7FD2274FFF8
:10023300FCFDFEFF22E480F8A2D574FF13FC7D8051
:03024300E480EF65
:10024600F920E72824F950037907E4F42402FB187F
:10025600DBFDE624FB5014E9600DE4F618E604F62F
:0F026600B40A08E4F6D9F57401F60A22C2D522CB
:10027500ED33EC3392D5FA602AB4FF33EDC2E77B58
:10028500FF60067A02799AE4227A0279A320D504DE
:100295007A02799E224E614E002B494E46002D4929
:1002A5004E4600E47A08F608DAFC7B00740722E87B
:1002B500C0E0ECC0E0EDC0E0EEC0E0EFC0E0EA7504
:1002C500F010A4CAABF075F04DA42BFBE435F0FC9F
:1002D500EA2410FAEB34C5FBEC34D9FCEDC2E7FF98
:1002E50075F056A4F42411C5F0F434C58FF0A42A92
:1002F500E5F03BE43CF620E7141204AED0E0FFD075
:10030500E0FED0E0FDD0E0FC1201218014F40412DF
:1003150004AED0E0FFD0E0FED0E0FDD0E0FC12035B
:1003250078D0E0F8E6FAEDD2E7CD33EC332482FB62
:10033500E4C3CF33CFCE33CECD33CD33DBF37B0721
:1003450075F00A846004F6081B0AE5F0F6088FF0DC
:10035500740AA4FFACF08EF0740AA42CFEACF05025
:10036500010C8DF0740AA42CFDE435F0F608DBDEF3
:03037500740722E8
:10037800EC4D6011E8497017ED33EC3304600DE47F
:10038800FCFFFEFD22E933E8330470F80202311263
:1003980001FC58046009E4CC248150062850090265
:1003A800023B284003020238C0E0EB4A7044B9809F
:1003B80006D0E0FB020227EF4E701CBD8008EBFF61
:1003C800EAFEE9FD80EBE98DF0A4FEE5F0020461A8
:1003D800E9CDF9EAFEEBFFEF89F0A4FCE5F0CE8960
:1003E800F0A42EFFE435F0CD89F0A42DFEE435F01D
:1003F8008067EF4E7005BD80D780C3EF8BF0A4AC4B
:10040800F0EE8BF0A42CFCE435F0F8EF8AF0A42C85
:10041800E5F038FCE433CB8DF0A42CFCE5F03BF898
:10042800EE8AF0A42CFCE5F038F8E433CF89F0A488
:100438002CFCE5F038CF3400CE89F0A42FFFE5F08E
:100448003EFEE433C98DF0A42EFEE5F039CD8AF0E6
:10045800A42FFFE5F03EFEE43DFD33D0E0FB50075E
:100468000BBB000F02023BEC2CFCEF33FFEE33FE1C
:06047800ED33FD0202134A
:10047E003F8000004120000042C80000447A000086
:10048E00461C400047C35000497424004B18968008
:10049E004CBEBC205A0E1BCA6753C21C749DC5AEFF
:1004AE00FB60065407601C23231204DCEB543860F7
:1004BE00091204C81204D7120378ECF8EDF9EEFA1B
:1004CE00EFCB22EB1204D780F1543803241C900496
:1004DE007EFE93FC0EEE93FD0EEE930ECE93FF2258
:10246900022E4AE493A3F8E493A34003F68001F211
:1024790008DFF48029E493A3F85407240CC8C33374
:10248900C4540F4420C8834004F456800146F6DF43
:10249900E4800B0102040810204080902D7BE47E2B
:1024A900019360BCA3FF543F30E509541FFEE49338
:1024B900A360010ECF54C025E060A840B8E493A3FF
:1024C900FAE493A3F8E493A3C8C582C8CAC583CA2A
:1024D900F0A3C8C582C8CAC583CADFE9DEE780BEE2
:012D9B000037
:1004EE00BB010689828A83E0225002E722BBFE020C
:0904FE00E32289828A83E493223F
:10050700BB010CE58229F582E5833AF583E02250A9
:1005170006E92582F8E622BBFE06E92582F8E222F3
:0D052700E58229F582E5833AF583E493220D
:10053400BB010689828A83F0225002F722BBFE01A6
:02054400F322A0
:10054600F8BB010DE58229F582E5833AF583E8F0EB
:10055600225006E92582C8F622BBFE05E92582C897
:02056600F2227F
:10056800EF8DF0A4A8F0CF8CF0A428CE8DF0A42EA7
:02057800FE2261
:10057A00C2D5EC30E709B2D5E4C39DFDE49CFCEE9C
:10058A0030E715B2D5E4C39FFFE49EFE1207EAC323
:10059A00E49DFDE49CFC80031207EA30D507C3E41E
:0605AA009FFFE49EFE220B
:1005B000BB010A89828A83E0F5F0A3E02250068716
:1005C000F009E71922BBFE07E3F5F009E3192289D8
:0B05D000828A83E493F5F0740193220B
:1005DB00BB010789828A8302083F500B09C5F027AC
:1005EB00F7C5F01937F722BBFE0D09F8E325F0F339
:1005FB00C5F019E338F322F889828A8374019325B5
:08060B00F0C5F0F8E493382279
:0E061300C3E49FFFE49EFEE49DFDE49CFC22F8
:10062100EB9FF5F0EA9E42F0E99D42F0E89C45F02F
:0106310022A6
:0C063200ECF608EDF608EEF608EFF622F4
:10063E00A8828583F0D083D08212065512065512F9
:10064E000655120655E473E493A3C583C5F0C5831E
:10065E00C8C582C8F0A3C583C5F0C583C8C582C806
:01066E002269
:10066F00FAE6FB0808E6F925F0F618E6CA3AF6228C
:10067F00BB010DE58229F582E5833AF58302085E19
:10068F005007E92582F8020855BBFE07E92582F8D5
:10069F00020867E58229F582E5833AF5830208703F
:1006AF00D083D082F8E4937012740193700DA3A3DA
:1006BF0093F8740193F5828883E4737402936860EE
:0606CF00EFA3A3A380DFEE
:102D3300EFB40A07740D122D3E740A309811A89946
:102D4300B8130CC2983098FDA899C298B811F63000
:072D530099FDC299F59922D8
:1006D500E709F60870FA8046E709F20870FA803EE5
:1006E50088828C83E709F0A370FA807EE309F60817
:1006F50070FA8076E309F20870FA806E88828C833E
:10070500E309F0A370FA806289828A83E0A3F60880
:1007150070FA805689828A83E0A3F20870FA804ACB
:1007250080D280FA80C680D4806580F280318010C6
:1007350080A680EA809A80A880DA80E280CA80312B
:1007450089828A83ECFAE493A3C8C582C8CCC583A1
:10075500CCF0A3C8C582C8CCC583CC70E9800D890F
:10076500828A83E493A3F60870F9ECFAA9F0EDFB0D
:100775002289828A83ECFAE0A3C8C582C8CCC583E6
:10078500CCF0A3C8C582C8CCC583CC70EA80DD890E
:10079500828A83E493A3F20870F980CE88F0ED2471
:1007A50002B4040050C4F582EB2402B4040050BA2C
:0907B500232345822390072573DC
:102AF2008B288A29892AE4F530F531E52F152FAE86
:102B02002E7002152E4E6033AB2BAA2CA92D120467
:102B1200EEFFAB28AA29A92A0531E531AC307002B3
:102B2200053014F5828C83EF120546EF60CD7401F7
:102B3200252DF52DE4352CF52C80C0AB28AA29A92A
:022B42002A2245
:10000E00E4FFFE1204EE600C0FEF70010E09E970B2
:05001E00F20A80EF2250
:1007BE00EF4E6012EF60010EEDBB010B89828A8352
:1007CE00F0A3DFFCDEFA2289F05007F709DFFCA95F
:0C07DE00F022BBFEFCF309DFFCA9F022B6
:1007EA00BC000BBE0029EF8DF084FFADF022E4CCF3
:1007FA00F875F008EF2FFFEE33FEEC33FCEE9DECBC
:10080A00984005FCEE9DFE0FD5F0E9E4CEFD22ED01
:10081A00F8F5F0EE8420D21CFEADF075F008EF2F4B
:10082A00FFED33FD4007985006D5F0F222C398FD3C
:05083A000FD5F0EA22D9
:10083F00C5F0F8A3E028F0C5F0F8E5821582700244
:06084F001583E038F022E1
:09085500E6FB08E6FA08E6F922C8
:09085E00E0FBA3E0FAA3E0F9229B
:09086700E2FB08E2FA08E2F922C2
:0C087000E493FB740193FA740293F922E4
:00000001FF
